{
  "_format": "hh-sol-artifact-1",
  "contractName": "DIDRegistry",
  "sourceName": "contracts/DIDRegistry.sol",
  "abi": [
    {
      "anonymous": false,
      "inputs": [
        {
          "indexed": true,
          "internalType": "address",
          "name": "user",
          "type": "address"
        },
        {
          "indexed": false,
          "internalType": "string",
          "name": "cid",
          "type": "string"
        }
      ],
      "name": "DIDRegistered",
      "type": "event"
    },
    {
      "anonymous": false,
      "inputs": [
        {
          "indexed": true,
          "internalType": "address",
          "name": "user",
          "type": "address"
        },
        {
          "indexed": false,
          "internalType": "string",
          "name": "newCid",
          "type": "string"
        }
      ],
      "name": "DIDUpdated",
      "type": "event"
    },
    {
      "inputs": [
        {
          "internalType": "address",
          "name": "",
          "type": "address"
        }
      ],
      "name": "dids",
      "outputs": [
        {
          "internalType": "string",
          "name": "cid",
          "type": "string"
        },
        {
          "internalType": "uint256",
          "name": "updatedAt",
          "type": "uint256"
        },
        {
          "internalType": "bool",
          "name": "exists",
          "type": "bool"
        }
      ],
      "stateMutability": "view",
      "type": "function"
    },
    {
      "inputs": [
        {
          "internalType": "string",
          "name": "cid",
          "type": "string"
        }
      ],
      "name": "registerDID",
      "outputs": [],
      "stateMutability": "nonpayable",
      "type": "function"
    },
    {
      "inputs": [
        {
          "internalType": "address",
          "name": "user",
          "type": "address"
        }
      ],
      "name": "resolveDID",
      "outputs": [
        {
          "internalType": "string",
          "name": "cid",
          "type": "string"
        },
        {
          "internalType": "uint256",
          "name": "updatedAt",
          "type": "uint256"
        }
      ],
      "stateMutability": "view",
      "type": "function"
    },
    {
      "inputs": [
        {
          "internalType": "string",
          "name": "newCid",
          "type": "string"
        }
      ],
      "name": "updateDID",
      "outputs": [],
      "stateMutability": "nonpayable",
      "type": "function"
    }
  ],
  "bytecode": "0x608060405234801561001057600080fd5b50610e11806100206000396000f3fe608060405234801561001057600080fd5b506004361061004c5760003560e01c806314c95832146100515780633593f81b1461006d578063570810e21461009f578063e627dcb6146100bb575b600080fd5b61006b600480360381019061006691906107a2565b6100ec565b005b61008760048036038101906100829190610849565b610260565b60405161009693929190610929565b60405180910390f35b6100b960048036038101906100b491906107a2565b61031f565b005b6100d560048036038101906100d09190610849565b61049e565b6040516100e3929190610967565b60405180910390f35b6000803373ffffffffffffffffffffffffffffffffffffffff1673ffffffffffffffffffffffffffffffffffffffff16815260200190815260200160002060020160009054906101000a900460ff1661017a576040517f08c379a0000000000000000000000000000000000000000000000000000000008152600401610171906109e3565b60405180910390fd5b806000803373ffffffffffffffffffffffffffffffffffffffff1673ffffffffffffffffffffffffffffffffffffffff16815260200190815260200160002060000190816101c89190610c0f565b50426000803373ffffffffffffffffffffffffffffffffffffffff1673ffffffffffffffffffffffffffffffffffffffff168152602001908152602001600020600101819055503373ffffffffffffffffffffffffffffffffffffffff167fa0016473004b22caf3cbe32658844f4dfe20b54f72612d0ea625cc07ca3a192b826040516102559190610ce1565b60405180910390a250565b600060205280600052604060002060009150905080600001805461028390610a32565b80601f01602080910402602001604051908101604052809291908181526020018280546102af90610a32565b80156102fc5780601f106102d1576101008083540402835291602001916102fc565b820191906000526020600020905b8154815290600101906020018083116102df57829003601f168201915b5050505050908060010154908060020160009054906101000a900460ff16905083565b6000803373ffffffffffffffffffffffffffffffffffffffff1673ffffffffffffffffffffffffffffffffffffffff16815260200190815260200160002060020160009054906101000a900460ff16156103ae576040517f08c379a00000000000000000000000000000000000000000000000000000000081526004016103a590610d4f565b60405180910390fd5b6040518060600160405280828152602001428152602001600115158152506000803373ffffffffffffffffffffffffffffffffffffffff1673ffffffffffffffffffffffffffffffffffffffff168152602001908152602001600020600082015181600001908161041f9190610c0f565b506020820151816001015560408201518160020160006101000a81548160ff0219169083151502179055509050503373ffffffffffffffffffffffffffffffffffffffff167fbfab59a7af78dfc896c3096604749fcee2db2e850297de42de5e6369f54bd3fb826040516104939190610ce1565b60405180910390a250565b606060008060008473ffffffffffffffffffffffffffffffffffffffff1673ffffffffffffffffffffffffffffffffffffffff16815260200190815260200160002060020160009054906101000a900460ff16610530576040517f08c379a000000000000000000000000000000000000000000000000000000000815260040161052790610dbb565b60405180910390fd5b6000808473ffffffffffffffffffffffffffffffffffffffff1673ffffffffffffffffffffffffffffffffffffffff1681526020019081526020016000206000016000808573ffffffffffffffffffffffffffffffffffffffff1673ffffffffffffffffffffffffffffffffffffffff168152602001908152602001600020600101548180546105bf90610a32565b80601f01602080910402602001604051908101604052809291908181526020018280546105eb90610a32565b80156106385780601f1061060d57610100808354040283529160200191610638565b820191906000526020600020905b81548152906001019060200180831161061b57829003601f168201915b5050505050915091509150915091565b6000604051905090565b600080fd5b600080fd5b600080fd5b600080fd5b6000601f19601f8301169050919050565b7f4e487b7100000000000000000000000000000000000000000000000000000000600052604160045260246000fd5b6106af82610666565b810181811067ffffffffffffffff821117156106ce576106cd610677565b5b80604052505050565b60006106e1610648565b90506106ed82826106a6565b919050565b600067ffffffffffffffff82111561070d5761070c610677565b5b61071682610666565b9050602081019050919050565b82818337600083830152505050565b6000610745610740846106f2565b6106d7565b90508281526020810184848401111561076157610760610661565b5b61076c848285610723565b509392505050565b600082601f8301126107895761078861065c565b5b8135610799848260208601610732565b91505092915050565b6000602082840312156107b8576107b7610652565b5b600082013567ffffffffffffffff8111156107d6576107d5610657565b5b6107e284828501610774565b91505092915050565b600073ffffffffffffffffffffffffffffffffffffffff82169050919050565b6000610816826107eb565b9050919050565b6108268161080b565b811461083157600080fd5b50565b6000813590506108438161081d565b92915050565b60006020828403121561085f5761085e610652565b5b600061086d84828501610834565b91505092915050565b600081519050919050565b600082825260208201905092915050565b60005b838110156108b0578082015181840152602081019050610895565b60008484015250505050565b60006108c782610876565b6108d18185610881565b93506108e1818560208601610892565b6108ea81610666565b840191505092915050565b6000819050919050565b610908816108f5565b82525050565b60008115159050919050565b6109238161090e565b82525050565b6000606082019050818103600083015261094381866108bc565b905061095260208301856108ff565b61095f604083018461091a565b949350505050565b6000604082019050818103600083015261098181856108bc565b905061099060208301846108ff565b9392505050565b7f444944206e6f7420726567697374657265640000000000000000000000000000600082015250565b60006109cd601283610881565b91506109d882610997565b602082019050919050565b600060208201905081810360008301526109fc816109c0565b9050919050565b7f4e487b7100000000000000000000000000000000000000000000000000000000600052602260045260246000fd5b60006002820490506001821680610a4a57607f821691505b602082108103610a5d57610a5c610a03565b5b50919050565b60008190508160005260206000209050919050565b60006020601f8301049050919050565b600082821b905092915050565b600060088302610ac57fffffffffffffffffffffffffffffffffffffffffffffffffffffffffffffffff82610a88565b610acf8683610a88565b95508019841693508086168417925050509392505050565b6000819050919050565b6000610b0c610b07610b02846108f5565b610ae7565b6108f5565b9050919050565b6000819050919050565b610b2683610af1565b610b3a610b3282610b13565b848454610a95565b825550505050565b600090565b610b4f610b42565b610b5a818484610b1d565b505050565b5b81811015610b7e57610b73600082610b47565b600181019050610b60565b5050565b601f821115610bc357610b9481610a63565b610b9d84610a78565b81016020851015610bac578190505b610bc0610bb885610a78565b830182610b5f565b50505b505050565b600082821c905092915050565b6000610be660001984600802610bc8565b1980831691505092915050565b6000610bff8383610bd5565b9150826002028217905092915050565b610c1882610876565b67ffffffffffffffff811115610c3157610c30610677565b5b610c3b8254610a32565b610c46828285610b82565b600060209050601f831160018114610c795760008415610c67578287015190505b610c718582610bf3565b865550610cd9565b601f198416610c8786610a63565b60005b82811015610caf57848901518255600182019150602085019450602081019050610c8a565b86831015610ccc5784890151610cc8601f891682610bd5565b8355505b6001600288020188555050505b505050505050565b60006020820190508181036000830152610cfb81846108bc565b905092915050565b7f44494420616c7265616479206578697374730000000000000000000000000000600082015250565b6000610d39601283610881565b9150610d4482610d03565b602082019050919050565b60006020820190508181036000830152610d6881610d2c565b9050919050565b7f444944206e6f7420666f756e6400000000000000000000000000000000000000600082015250565b6000610da5600d83610881565b9150610db082610d6f565b602082019050919050565b60006020820190508181036000830152610dd481610d98565b905091905056fea264697066735822122090309265d09bd844f81cc0d4a6d26864d4233a895e6f5e038293c738f638afa364736f6c63430008140033",
  "linkReferences": {},
  "deployedLinkReferences": {}
}